:020000040800F2
:10000000000001206D6500087D6300088B63000817
:1000100091630008976300089D63000800000000DA
:10002000000000000000000000000000A3630008C2
:10003000B163000800000000BF630008CD63000842
:10004000BD650008BD650008BD650008BD65000808
:10005000BD650008BD650008BD650008BD650008F8
:10006000BD650008BD650008D9630008BD650008CE
:10007000BD650008BD650008BD650008BD650008D8
:10008000BD650008BD650008BD65000800000000F2
:10009000000000000000000000000000BD65000836
:1000A000E9630008BD650008BD650008BD6500087E
:1000B000FD630008BD65000811640008BD65000807
:1000C000BD650008BD650008BD6500082564000821
:1000D000396400084D640008BD6500080000000098
:1000E000BD650008BD650008BD6500080000000092
:1000F000000000000000000000000000BD650008D6
:1001000000000000BD650008BD650008BD65000871
:1001100000000000000000000000000000000000DF
:10012000BD650008BD650008BD650008BD65000827
:10013000BD65000800000000000000000000000095
:10014000000000000000000000000000BD65000885
:10015000BD650008BD650008BD650008BD650008F7
:10016000BD650008BD65000800000000000000003B
:10017000000000000000000000000000000000007F
:1001800000000000BD650008000000000000000045
:04019000BD65000841
:1001A00010B5054C237833B9044B13B10448AFF3B1
:1001B00000800123237010BD5401002000000000C6
:1001C0007813010808B5034B1BB103490348AFF38B
:1001D000008008BD000000005801002078130108CD
:1001E00001F0FF01102A2BDB10F0070F08D010F8E8
:1001F000013B013A8B422DD010F0070F42B3F6D1EC
:10020000F0B441EA012141EA014122F007047FF004
:1002100000070023F0E80256083C85EA010586EA5B
:10022000010685FA47F5A3FA87F586FA47F6A5FA97
:1002300087F68EB9EED1F0BC01F0FF0102F00702A3
:1002400032B110F8013B013A83EA010313B1F8D14E
:100250000020704701387047002D06BF354603382F
:10026000073815F0010F07D1013015F4807F02BF68
:10027000013015F4C03F0130F0BC0138704700BFB9
:1002800081F0004102E000BF83F0004330B54FEA47
:1002900041044FEA430594EA050F08BF90EA020FB4
:1002A0001FBF54EA000C55EA020C7FEA645C7FEA47
:1002B000655C00F0E2804FEA5454D4EB5555B8BF6A
:1002C0006D420CDD2C4480EA020281EA030382EADB
:1002D000000083EA010180EA020281EA0303362D6D
:1002E00088BF30BD11F0004F4FEA01314FF4801C40
:1002F0004CEA113102D0404261EB410113F0004F52
:100300004FEA03334CEA133302D0524263EB430308
:1003100094EA050F00F0A780A4F10104D5F1200EA6
:100320000DDB02FA0EFC22FA05F2801841F1000101
:1003300003FA0EF2801843FA05F359410EE0A5F1D5
:1003400020050EF1200E012A03FA0EFC28BF4CF006
:10035000020C43FA05F3C01851EBE37101F00045BC
:1003600007D54FF0000EDCF1000C7EEB00006EEBC9
:100370000101B1F5801F1BD3B1F5001F0CD3490853
:100380005FEA30004FEA3C0C04F101044FEA4452AA
:1003900012F5800F80F09A80BCF1004F08BF5FEA31
:1003A000500C50F1000041EB045141EA050130BD11
:1003B0005FEA4C0C404141EB0101013C28BFB1F523
:1003C000801FE9D291F0000F04BF01460020B1FA6E
:1003D00081F308BF2033A3F10B03B3F120020CDA41
:1003E0000C3208DD02F1140CC2F10C0201FA0CF01F
:1003F00021FA02F10CE002F11402D8BFC2F1200C84
:1004000001FA02F120FA0CFCDCBF41EA0C01904039
:10041000E41AA2BF01EB0451294330BD6FEA040482
:100420001F3C1CDA0C340EDC04F11404C4F120026D
:1004300020FA04F001FA02F340EA030021FA04F37F
:1004400045EA030130BDC4F10C04C4F1200220FAD6
:1004500002F001FA04F340EA0300294630BD21FA14
:1004600004F0294630BD94F0000F83F4801306BFDA
:1004700081F480110134013D4EE77FEA645C18BFCE
:100480007FEA655C29D094EA050F08BF90EA020F65
:1004900005D054EA000C04BF1946104630BD91EA5D
:1004A000030F1EBF0021002030BD5FEA545C05D160
:1004B0004000494128BF41F0004130BD14F580049F
:1004C0003CBF01F5801130BD01F0004545F0FE4113
:1004D00041F470014FF0000030BD7FEA645C1ABF48
:1004E000194610467FEA655C1CBF0B46024650EA7F
:1004F000013406BF52EA033591EA030F41F40021AB
:1005000030BD00BF90F0000F04BF0021704730B530
:100510004FF4806404F132044FF000054FF0000105
:1005200050E700BF90F0000F04BF0021704730B5C6
:100530004FF4806404F1320410F0004548BF40429B
:100540004FF000013EE700BF42004FEAE2014FEAF0
:1005500031014FEA02701FBF12F07F4393F07F4FCB
:1005600081F06051704732F07F4208BF704793F0CE
:100570007F4F04BF41F40021704730B54FF46074E1
:1005800001F0004521F000411CE700BF50EA0102E4
:1005900008BF704730B54FF000050AE050EA01028D
:1005A00008BF704730B511F0004502D5404261EBFD
:1005B00041014FF4806404F132045FEA915C3FF43E
:1005C000D8AE4FF003025FEADC0C18BF03325FEADB
:1005D000DC0C18BF033202EBDC02C2F1200300FA8C
:1005E00003FC20FA02F001FA03FE40EA0E0021FAB1
:1005F00002F11444BDE600BF70B54FF0FF0C4CF49F
:10060000E06C1CEA11541DBF1CEA135594EA0C0F50
:1006100095EA0C0F00F0DEF82C4481EA030621EA8B
:100620004C5123EA4C5350EA013518BF52EA0335C6
:1006300041F4801143F4801338D0A0FB02CE4FF078
:100640000005E1FB02E506F00042E0FB03E54FF0A8
:100650000006E1FB03569CF0000F18BF4EF0010EA0
:10066000A4F1FF04B6F5007F64F5407404D25FEA9C
:100670004E0E6D4146EB060642EAC62141EA55514F
:100680004FEAC52040EA5E504FEACE2EB4F1FD0C91
:1006900088BFBCF5E06F1ED8BEF1004F08BF5FEA0F
:1006A000500E50F1000041EB045170BD06F00046C1
:1006B00046EA010140EA020081EA0301B4EB5C046E
:1006C000C2BFD4EB0C0541EA045170BD41F4801166
:1006D0004FF0000E013C00F3AB8014F1360FDEBF8B
:1006E000002001F0004170BDC4F10004203C35DA67
:1006F0000C341BDC04F11404C4F1200500FA05F3EA
:1007000020FA04F001FA05F240EA020001F000428A
:1007100021F0004110EBD37021FA04F642EB060100
:100720005EEA430E08BF20EAD37070BDC4F10C042A
:10073000C4F1200500FA04F320FA05F001FA04F2EE
:1007400040EA020001F0004110EBD37041F10001DA
:100750005EEA430E08BF20EAD37070BDC4F12005E5
:1007600000FA05F24EEA020E20FA04F301FA05F24D
:1007700043EA020321FA04F001F0004121FA04F2F5
:1007800020EA020000EBD3705EEA430E08BF20EAC5
:10079000D37070BD94F0000F0FD101F000464000FF
:1007A00041EB010111F4801F08BF013CF7D041EA81
:1007B000060195F0000F18BF704703F00046520085
:1007C00043EB030313F4801F08BF013DF7D043EA56
:1007D0000603704794EA0C0F0CEA135518BF95EA0C
:1007E0000C0F0CD050EA410618BF52EA4306D1D193
:1007F00081EA030101F000414FF0000070BD50EAB2
:10080000410606BF1046194652EA430619D094EA3B
:100810000C0F02D150EA013613D195EA0C0F05D125
:1008200052EA03361CBF104619460AD181EA030179
:1008300001F0004141F0FE4141F470014FF0000031
:1008400070BD41F0FE4141F4780170BD70B54FF0CC
:10085000FF0C4CF4E06C1CEA11541DBF1CEA13554C
:1008600094EA0C0F95EA0C0F00F0A7F8A4EB05042E
:1008700081EA030E52EA03354FEA013100F0888025
:100880004FEA03334FF0805545EA131343EA1263EE
:100890004FEA022245EA111545EA10654FEA0026A3
:1008A0000EF000419D4208BF964244F1FD0404F55C
:1008B000407402D25B084FEA3202B61A65EB0305B8
:1008C0005B084FEA32024FF480104FF4002CB6EB75
:1008D000020E75EB030E22BFB61A754640EA0C00F5
:1008E0005B084FEA3202B6EB020E75EB030E22BF35
:1008F000B61A754640EA5C005B084FEA3202B6EB76
:10090000020E75EB030E22BFB61A754640EA9C0034
:100910005B084FEA3202B6EB020E75EB030E22BF04
:10092000B61A754640EADC0055EA060E18D04FEAC2
:10093000051545EA16754FEA06164FEAC30343EA62
:1009400052734FEAC2025FEA1C1CC0D111F4801F2F
:100950000BD141EA00014FF000004FF0004CB6E728
:1009600011F4801F04BF01430020B4F1FD0C88BFC7
:10097000BCF5E06F3FF6AFAEB5EB030C04BFB6EBD2
:10098000020C5FEA500C50F1000041EB045170BDC5
:100990000EF0004E4EEA113114EB5C04C2BFD4EBF2
:1009A0000C0541EA045170BD41F480114FF0000E76
:1009B000013C90E645EA060E8DE60CEA135594EAF2
:1009C0000C0F08BF95EA0C0F3FF43BAF94EA0C0FF5
:1009D0000AD150EA01347FF434AF95EA0C0F7FF46A
:1009E00025AF104619462CE795EA0C0F06D152EABE
:1009F00003353FF4FDAE1046194622E750EA4106A2
:100A000018BF52EA43067FF4C5AE50EA41047FF4B2
:100A10000DAF52EA43057FF4EBAE12E74FF0FF3C17
:100A200006E000BF4FF0010C02E000BF4FF0010CE8
:100A30004DF804CD4FEA410C7FEA6C5C4FEA430C61
:100A400018BF7FEA6C5C1BD001B050EA410C0CBFB0
:100A500052EA430C91EA030F02BF90EA020F002012
:100A6000704710F1000F91EA030F58BF994208BF79
:100A700090422CBFD8176FEAE37040F00100704736
:100A80004FEA410C7FEA6C5C02D150EA013C07D18D
:100A90004FEA430C7FEA6C5CD6D152EA033CD3D0D8
:100AA0005DF8040B704700BF8446104662468C46D2
:100AB0001946634600E000BF01B5FFF7B7FF002805
:100AC00048BF10F1000F01BD4DF808EDFFF7F4FF2E
:100AD0000CBF012000205DF808FB00BF4DF808EDB9
:100AE000FFF7EAFF34BF012000205DF808FB00BFDC
:100AF0004DF808EDFFF7E0FF94BF012000205DF8FE
:100B000008FB00BF4DF808EDFFF7CEFF94BF0120B2
:100B100000205DF808FB00BF4DF808EDFFF7C4FFAB
:100B200034BF012000205DF808FB00BF4FEA410CF4
:100B30007FEA6C5C02D150EA013C0AD14FEA430CD7
:100B40007FEA6C5C02D152EA033C02D14FF0000014
:100B500070474FF0010070474FEA4102B2F1E043A5
:100B600024BFB3F5001CDCF1FE5C0DD901F0004C94
:100B70004FEAC0024CEA5070B2F1004F40EB8300E4
:100B800008BF20F00100704711F0804F21D113F110
:100B90003872BCBF01F00040704741F480114FEA49
:100BA0005252C2F11802C2F1200C10FA0CF320FAD2
:100BB00002F018BF40F001004FEAC1234FEAD323EF
:100BC00003FA0CFC40EA0C0023FA02F34FEA430359
:100BD000CCE77FEA625307D150EA01331EBF4FF0E2
:100BE000FE4040F44000704701F0004040F0FE40FD
:100BF00040F40000704700BF53B94AB9002908BF4C
:100C000000281CBF4FF0FF314FF0FF3000F06EB9ED
:100C1000ADF1080C6DE904CE00F006F8DDF804E053
:100C2000DDE9022304B070472DE9F047089D044632
:100C30008C46002B40F083808A42174647D9B2FA8F
:100C400082F242B1C2F1200024FA00F091409740B4
:100C500040EA010C94404FEA1748230CBCFBF8F61D
:100C60001FFA87FE08FB16C143EA014306FB0EF19B
:100C7000994209D9FB1806F1FF3080F01981994299
:100C800040F21681023E3B445B1AA4B2B3FBF8F07B
:100C900008FB103344EA034400FB0EFEA64509D9C5
:100CA0003C1900F1FF3380F00581A64540F2028136
:100CB00002383C4440EA0640A4EB0E0400261DB175
:100CC000D4400023C5E900433146BDE8F08702B9AE
:100CD000FFDEB2FA82F2002A50D1CB1B4FEA174E48
:100CE0001FFA87F80126B3FBFEFC210C0EFB1C3318
:100CF00041EA034108FB0CF38B4207D979180CF148
:100D0000FF3002D28B4200F2E9808446C91AA3B2B6
:100D1000B1FBFEF00EFB101143EA014408FB00F8A2
:100D2000A04507D93C1900F1FF3302D2A04500F2DB
:100D3000D9801846A4EB080440EA0C40BFE78B4278
:100D400009D9002D00F0B1800026C5E90001304628
:100D50003146BDE8F087B3FA83F6002E4AD18B42C4
:100D600002D3824200F2B880841A61EB03010120B1
:100D70008C46002DA8D0C5E9004CA5E7C2F12003A0
:100D800020FA03F6974001FA02F04FEA174ED940D5
:100D90003043030CB1FBFEF61FFA87F80EFB161169
:100DA00043EA014306FB08F1994204FA02F409D927
:100DB000FB1806F1FF3C80F08D80994240F28A805A
:100DC000023E3B445B1A81B2B3FBFEF00EFB1033D4
:100DD00041EA034100FB08F38B4207D9791800F17F
:100DE000FF3C73D28B4271D902383944CB1A40EAA6
:100DF000064678E7C6F1200C03FA06F422FA0CF353
:100E00001C4320FA0CF701FA06F34FEA144E21FABC
:100E10000CF11F433B0CB1FBFEF91FFA84F80EFBEB
:100E2000191143EA014109FB08FA8A4502FA06F260
:100E300000FA06F308D9611809F1FF3048D28A4553
:100E400046D9A9F102092144A1EB0A01BFB2B1FBC5
:100E5000FEF00EFB101147EA014700FB08F8B84509
:100E600007D9E71900F1FF312ED2B8452CD9023845
:100E7000274440EA0940A7EB0807A0FB02894F4539
:100E8000C64649461AD317D05DB1B3EB0E0267EBE5
:100E9000010707FA0CFCF2404CEA0202F740C5E9F0
:100EA000002700263146BDE8F0872E4628460BE78E
:100EB0000646E9E61846FDE64345E5D2B8EB020EE4
:100EC00069EB04010138DFE70846D2E760468DE7A9
:100ED0008146B9E7664675E730464AE7ACF1020C51
:100EE000394413E702383C4424E700BF704700BF91
:100EF00080B59AB000AFF860B9607A60044BB3F97E
:100F00000030C72B0ADC034B034A1A6009E000BF1C
:100F1000E20D00209805002000002041E14BE24A4C
:100F20001A60FB681B687B66FB685B683B66FB6856
:100F30009B68FB65BB68D3ED007A9FEDDC7A67EEBA
:100F4000877AC7ED167ABB68D3ED017A9FEDD77A21
:100F500067EE877AC7ED157ABB68D3ED027A9FED0D
:100F6000D37A67EE877AC7ED147AD14B93ED007A86
:100F7000CF4BD3ED007A67EE277AC7ED137ACC4BCF
:100F800093ED007ACB4BD3ED007A67EE277AC7ED6D
:100F9000127AC74B93ED007AC74BD3ED007A67EE18
:100FA000277AC7ED117AC34B93ED007AC14BD3ED8D
:100FB000007A67EE277AC7ED107ABE4B93ED007A80
:100FC000BE4BD3ED007A67EE277AC7ED0F7ABA4BA6
:100FD00093ED007AB84BD3ED007A67EE277AC7ED30
:100FE0000E7AB54B93ED007AB44BD3ED007A67EEF1
:100FF000277AC7ED0D7AB14B93ED007AAF4BD3ED65
:10100000007A67EE277AC7ED0C7AD7ED197A27EECA
:10101000A77AD7ED187A67EEA77A37EE277AD7ED59
:10102000177A67EEA77A77EE277AB0EE670A00F0B4
:10103000E5F987ED0B0A97ED197AD7ED0B7A67EE94
:10104000277AC7ED197A97ED187AD7ED0B7A67EE04
:10105000277AC7ED187A97ED177AD7ED0B7A67EEF6
:10106000277AC7ED177A97ED0F7AD7ED117A77EED9
:10107000677A77EEA77AC7ED0A7A97ED127AD7EDFD
:101080000D7A77EE277A77EEA77AC7ED097A97ED92
:10109000137AD7ED107A37EE677AD7ED0E7A77EEBE
:1010A000677A97ED0C7A77EE277AC7ED087A97ED95
:1010B000187AD7ED087A27EE277AD7ED176AD7ED99
:1010C000097A66EEA77A77EE677AC7ED077A97ED29
:1010D000177AD7ED0A7A27EE277AD7ED196AD7ED76
:1010E000087A66EEA77A77EE677AC7ED067A97ED0B
:1010F000197AD7ED097A27EE277AD7ED186AD7ED56
:101100000A7A66EEA77A77EE677AC7ED057AD7EDA9
:10111000077A9FED6B7A67EE877A9FED6A7A27EE02
:10112000877A694BD3ED007A77EE277A664BC3ED69
:10113000007AD7ED067A9FED627A67EE877A9FEDA7
:10114000617A27EE877A614BD3ED007A77EE277AC2
:101150005E4BC3ED007AD7ED057A9FED597A67EEC5
:10116000877A9FED587A27EE877A594BD3ED007A2C
:1011700077EE277A564BC3ED007A4A4B93ED007A0F
:10118000D7ED077A27EE277AD7ED167A37EE277A4A
:101190004D4BD3ED007A77EE277AC7ED167A414BA7
:1011A00093ED007AD7ED067A27EE277AD7ED157AF8
:1011B00037EE277A454BD3ED007A77EE277AC7EDE5
:1011C000157A384B93ED007AD7ED057A27EE277A1A
:1011D000D7ED147A37EE277A3D4BD3ED007A77EED0
:1011E000277AC7ED147A3B4B3B61324BD3ED007A43
:1011F000B1EE677AD7ED167A27EE277A2E4BD3ED2C
:10120000006AD7ED157A66EEA77A37EE677A2B4B30
:10121000D3ED006AD7ED147A66EEA77A37EE677AD7
:10122000D7ED047A27EE277A214BD3ED007A77EEBB
:10123000277A1F4BC3ED007A1D4B93ED007AD7ED53
:10124000167A27EE277A1C4BD3ED006AD7ED147A75
:1012500066EEA77A37EE277A184BD3ED006AD7ED02
:10126000157A66EEA77A37EE677AD7ED047A27EE1D
:10127000277A104BD3ED007A77EE277A0D4BC3ED2A
:10128000007A0B4B93ED007AD7ED157A27EE277A8B
:10129000084BD3ED006AD7ED147A66EEA77A37EEE5
:1012A000677A19E098050020CDCCCC3EA96892372A
:1012B000000000207001002074010020780100204F
:1012C000CDCCCC3DCDCCCC3B7C010020800100209E
:1012D00084010020CDCC4C3B444BD3ED006AD7EDCC
:1012E000167A66EEA77A37EE277AD7ED047A27EEDC
:1012F000277A3F4BD3ED007A77EE277A3C4BC3ED4C
:10130000007A3C4B93ED007AD7ED147A27EE277ADA
:10131000394BD3ED006AD7ED157A66EEA77A37EE32
:10132000277A334BD3ED006AD7ED167A66EEA77AAB
:1013300037EE677AD7ED047A27EE277A2B4BD3ED79
:10134000007A77EE277A294BC3ED007A97ED137A6E
:10135000D7ED107A37EE277AD7ED0E7A37EE277A67
:10136000D7ED0C7A77EE277AB0EE670A00F046F8F0
:1013700087ED0B0A1F4B93ED007AD7ED0B7A67EEE2
:10138000277A1C4BC3ED007A1B4B93ED007AD7ED07
:101390000B7A67EE277A184BC3ED007A144B93ED66
:1013A000007AD7ED0B7A67EE277A114BC3ED007AFE
:1013B0000E4B93ED007AD7ED0B7A67EE277A0B4B45
:1013C000C3ED007A0B4B1A687B681A600A4B1A68E7
:1013D0007B685A60064B1A687B689A60034B1A68F0
:1013E0007B68DA6000BF6837BD4680BD78010020A9
:1013F00074010020000000207001002080B487B03C
:1014000000AF87ED010AD7ED017AB6EE007A67EEFC
:10141000877AC7ED057A7B683B6107F110031B688B
:10142000FB60FB685A10124B9B1AFB6007F10C0320
:101430001B683B6197ED047AD7ED057A27EE277A92
:10144000D7ED047A67EE277AB7EE087A37EE677A37
:10145000D7ED047A67EE277AC7ED047A3B6907EE89
:10146000903AB0EE670A1C37BD465DF8047B7047C2
:10147000DF59375F80B582B000AF00237B60124B2D
:10148000124A1A60124B1B685A1C11490A60002B41
:1014900014D10D480AF08AFB0346002B0ED10A48EE
:1014A00000F0BCF87B68002B08D1074800F07AF800
:1014B0000346002B02D06FF007037B607B68184661
:1014C0000837BD4680BD00BFE80500200038004059
:1014D0008801002080B582B000AF6FF007037B6009
:1014E0000E4B1B68002B13D00C4B1B68013B0B4AA7
:1014F00013600A4B1B68002B0AD1094800F0F2F870
:10150000074809F032FE0346002B01D100237B601F
:101510007B6818460837BD4680BD00BF88010020A3
:10152000E805002080B584B000AF78600B467B8072
:101530000023FB607A884FF480537968064809F0ED
:101540003CFE0346002B02D06FF00503FB60FB68F6
:1015500018461037BD4680BDE805002080B584B030
:1015600000AF78600B467B800023FB607A884FF4E5
:1015700080537968064809F05CFF0346002B02D0CF
:101580006FF00503FB60FB6818461037BD4680BD51
:10159000E805002080B500AF07F0EAFE03461846D4
:1015A00080BD000080B584B000AF78600023FB737D
:1015B0007B68194A1A607B684FF482725A607B68B4
:1015C00000229A607B680022DA607B6800221A6140
:1015D0007B6800225A617B684FF400729A617B68D5
:1015E0000022DA617B6800221A627B6800225A625C
:1015F0007B6800229A627B680A22DA62786809F0C6
:101600002BFD0346002B01D00123FB73FB7B184607
:101610001037BD4680BD00BF0038004080B58AB09D
:1016200000AF786000233B612C4B1B6C2B4A43F4CA
:1016300080431364294B1B6C03F480433B613B697B
:101640000023FB60254B1B6B244A43F0020313630A
:10165000224B1B6B03F00203FB60FB684FF400534B
:101660007B610223BB610023FB6103233B620523F3
:101670007B6207F114031946194808F06BFC4FF41C
:1016800080437B610223BB610023FB6103233B6238
:1016900005237B6207F114031946114808F05AFC30
:1016A0004FF400437B610223BB610023FB610323F2
:1016B0003B6205237B6207F114031946084808F0D2
:1016C00049FC00220021242008F06DFB242008F0B2
:1016D00086FB00BF2837BD4680BD00BF00380240F2
:1016E0000004024080B582B000AF78600D4B1B6CE7
:1016F0000C4A23F4804313644FF400510A4808F065
:10170000ADFD4FF48041084808F0A8FD4FF40041BA
:10171000054808F0A3FD242008F06FFB00BF083740
:10172000BD4680BD00380240000402400FB480B5C1
:10173000C2B000AF07F58A73C7F800313846D7F852
:101740000031D7F81021FE210EF084FCC7F8040107
:101750003B46D7F80411184600F00AF8D7F80431D0
:10176000184607F58477BD46BDE8804004B0704751
:1017700080B582B000AF786039603B689AB24FF4B0
:101780007A73796803480BF082FE00231846083705
:10179000BD4680BDF009002080B483B000AF786002
:1017A0007B68334A1A607B68324A5A607B684FF024
:1017B00000029A607B684FF080421A647B682E4A70
:1017C000DA607B682C4A1A617B682C4A5A617B6814
:1017D0002B4ADA647B684FF000029A657B684FF011
:1017E0000002DA657B68234A9A617B684FF0000249
:1017F000DA617B684FF080425A647B681E4A1A6245
:101800007B681D4A5A627B681C4A9A627B681C4A44
:101810001A657B684FF000021A667B684FF0000281
:101820005A667B684FF08142DA627B684FF00002B3
:101830001A637B684FF080429A647B68114A5A634E
:101840007B680C4A9A637B680A4ADA637B684FF0CC
:1018500080425A657B684FF000029A667B684FF0C1
:101860000002DA6600BF0C37BD465DF8047B7047A6
:101870000AD7A33A000040400000A04200002041E7
:101880000000A0410000614480B487B000AFF86060
:10189000B9607A603B60864BB3F90030C72B0BDC34
:1018A000844B4FF000021A60834B4FF000021A6025
:1018B000824B4FF000021A60FB6893ED007ABB6820
:1018C000D3ED007A77EE677AC7ED057A3B6893ED42
:1018D000007AD7ED057A27EE277A764BD3ED007A9A
:1018E00077EE277A734BC3ED007A3B6893ED107A5D
:1018F000704BD3ED007AB4EEE77AF1EE10FA04D52E
:101900003B681B6C6B4A136014E03B68D3ED107AA4
:10191000B1EE677A674BD3ED007AB4EEE77AF1EE79
:1019200010FA07DD3B68D3ED107AF1EE677A614B70
:10193000C3ED007A3B6893ED017AD7ED057A27EE87
:10194000277A3B68D3ED026A5A4BD3ED007A66EEF4
:10195000A77A77EE277A3B68C3ED167AFB6893ED9A
:10196000017ABB68D3ED017A77EE677AC7ED057A25
:101970003B6893ED007AD7ED057A27EE277A4E4B38
:10198000D3ED007A77EE277A4B4BC3ED007A3B68B4
:1019900093ED117A484BD3ED007AB4EEE77AF1EE8D
:1019A00010FA04D53B685B6C434A136014E03B6853
:1019B000D3ED117AB1EE677A3F4BD3ED007AB4EEF6
:1019C000E77AF1EE10FA07DD3B68D3ED117AF1EE1C
:1019D000677A394BC3ED007A3B6893ED067AD7ED11
:1019E000057A27EE277A3B68D3ED076A324BD3EDB1
:1019F000007A66EEA77A77EE277A3B68C3ED187A0D
:101A0000FB6893ED027ABB68D3ED027A77EE677AD2
:101A1000C7ED057A3B6893ED007AD7ED057A27EE9E
:101A2000277A264BD3ED007A77EE277A234BC3ED46
:101A3000007A3B6893ED127A204BD3ED007AB4EE36
:101A4000E77AF1EE10FA04D53B689B6C1B4A1360F1
:101A500014E03B68D3ED127AB1EE677A174BD3ED01
:101A6000007AB4EEE77AF1EE10FA07DD3B68D3EDC9
:101A7000127AF1EE677A114BC3ED007A3B6893ED71
:101A80000B7AD7ED057A27EE277A3B68D3ED0C6AFF
:101A90000A4BD3ED007A66EEA77A77EE277A3B6899
:101AA000C3ED1A7A00BF1C37BD465DF8047B704752
:101AB000E20D00208C010020900100209401002004
:101AC00080B487B000AFF860B9607A603B60BD4B0E
:101AD000B3F90030C72B0BDCBB4B4FF000021A6090
:101AE000BA4B4FF000021A60B94B4FF000021A6077
:101AF0003B6893ED007AF7EE006AC6EE877AB54B45
:101B0000C3ED007A3B6893ED167ABB68D3ED007A9B
:101B100077EE677AC7ED057A3B6893ED007AD7EDEB
:101B2000057A27EE277AA84BD3ED007A77EE277A4D
:101B3000A54BC3ED007A3B6893ED137AA24BD3ED2E
:101B4000007AB4EEE77AF1EE10FA04D53B68DB6C6C
:101B50009D4A136014E03B68D3ED137AB1EE677AC7
:101B6000994BD3ED007AB4EEE77AF1EE10FA07DD87
:101B70003B68D3ED137AF1EE677A934BC3ED007AAD
:101B8000954BD3ED007A97ED057A37EE677A914B56
:101B9000D3ED007A67EE277AC7ED047A8E4A7B6927
:101BA00013608E4BD3ED007A97ED047A77EE677A67
:101BB0009FED8B7A27EE877A884BD3ED007A77EE0C
:101BC000277AC7ED047A854A3B6913603B6893ED39
:101BD000037AD7ED057A27EE277A3B68D3ED046ABE
:101BE000794BD3ED007A66EEA77A37EE277A3B6819
:101BF000D3ED056AD7ED047A66EEA77A77EE277AF9
:101C00003B68C3ED177A3B68D3ED177A9FED757A81
:101C1000F4EEC77AF1EE10FA02DD3B68724ADA653B
:101C20003B68D3ED177A9FED717AF4EEC77AF1EE47
:101C300010FA02D53B686E4ADA653B6893ED187A74
:101C4000BB68D3ED017A77EE677AC7ED057A3B681A
:101C500093ED007AD7ED057A27EE277A5B4BD3ED2B
:101C6000007A77EE277A594BC3ED007A3B6893ED03
:101C7000147A564BD3ED007AB4EEE77AF1EE10FA0F
:101C800004D53B681B6D514A136014E03B68D3EDEB
:101C9000147AB1EE677A4D4BD3ED007AB4EEE77A61
:101CA000F1EE10FA07DD3B68D3ED147AF1EE677AB6
:101CB000464BC3ED007A4F4BD3ED007A97ED057A92
:101CC00037EE677A434BD3ED007A67EE277AC7ED9C
:101CD000047A484A7B691360474BD3ED007A97ED4D
:101CE000047A77EE677A9FED3E7A27EE877A424B49
:101CF000D3ED007A77EE277AC7ED047A3E4A3B6946
:101D000013603B6893ED087AD7ED057A27EE277AC2
:101D10003B68D3ED096A2D4BD3ED007A66EEA77AC6
:101D200037EE277A3B68D3ED0A6AD7ED047A66EE80
:101D3000A77A77EE277A3B68C3ED197A3B68D3ED33
:101D4000197A9FED287AF4EEC77AF1EE10FA02DDE7
:101D50003B68254A5A663B68D3ED197A9FED237A92
:101D6000F4EEC77AF1EE10FA02D53B68204A5A66C3
:101D70003B6893ED1A7ABB68D3ED027A77EE677A07
:101D8000C7ED057A3B6893ED007AD7ED057A27EE2B
:101D9000277A0F4BD3ED007A77EE277A0C4BC3ED01
:101DA000007A3B6893ED157A094BD3ED007AB4EED7
:101DB000E77AF1EE10FA21D53B685B6D044A1360B7
:101DC00031E000BFE20D0020980100209C010020BE
:101DD000A001002044060020A4010020B001002042
:101DE000CDCCCC3C0000484400004844000048C42E
:101DF000000048C4A8010020B40100203B68D3EDD6
:101E0000157AB1EE677A744BD3ED007AB4EEE77AC7
:101E1000F1EE10FA07DD3B68D3ED157AF1EE677A43
:101E20006D4BC3ED007A6D4BD3ED007A97ED057ADB
:101E300037EE677A6A4BD3ED007A67EE277AC7ED03
:101E4000047A664A7B6913603B6893ED0D7AD7ED9F
:101E5000057A27EE277A3B68D3ED0E6A5E4BD3ED09
:101E6000007A66EEA77A37EE277A3B68D3ED0F6AE1
:101E7000D7ED047A66EEA77A77EE277A3B68C3ED52
:101E80001B7A3B68D3ED1B7A9FED567AF4EEC77A46
:101E9000F1EE10FA02DD3B68534ADA663B68D3ED97
:101EA0001B7A9FED527AF4EEC77AF1EE10FA02D562
:101EB0003B684F4ADA664F4BB3F9003007EE903A71
:101EC000F8EEE77A9FED4C7A67EE877A9FED4B7AD2
:101ED00077EE877AFDEEE77A17EE903A1AB2484B22
:101EE0001A80474BB3F9003007EE903AB8EEE77A24
:101EF0003B68D3ED177A37EE677A3B68D3ED197AF2
:101F000037EE677A3B68D3ED1B7A77EE277A9FED41
:101F10003D7A77EE877A3B6AC3ED007A384BB3F9A6
:101F2000003007EE903AB8EEE77A3B68D3ED177AC7
:101F300037EE277A3B68D3ED197A37EE677A3B683C
:101F4000D3ED1B7A77EE677A9FED2E7A77EE877A5C
:101F50003B6AC3ED017A2A4BB3F9003007EE903AA1
:101F6000B8EEE77A3B68D3ED177A37EE277A3B680D
:101F7000D3ED197A37EE277A3B68D3ED1B7A77EEEB
:101F8000277A9FED207A77EE877A3B6AC3ED027A53
:101F90001B4BB3F9003007EE903AB8EEE77A3B6896
:101FA000D3ED177A37EE677A3B68D3ED197A37EEBF
:101FB000277A3B68D3ED1B7A77EE677A9FED117A2B
:101FC00077EE877A3B6AC3ED037A00BF1C37BD46C4
:101FD0005DF8047B704700BFA0010020AC01002029
:101FE000440600200000484400004844000048C463
:101FF000000048C4E20D0020CDCC4C3D50551E449D
:10200000400600200000000080B584B000AF00232F
:10201000BB60324B4FF000021A60304B4FF00002B1
:102020005A602E4B4FF000029A602D4B4FF0000289
:102030001A602B4B4FF000025A60294B4FF0000200
:102040009A60284B4FF000021A60264B4FF00002B6
:102050005A60244B4FF000029A60234B4FF000026D
:102060001A60214B4FF000025A601F4B4FF00002E4
:102070009A601E4B00221A601C4B00225A601B4BB8
:1020800000229A601A4B00221A60194B00225A60F3
:10209000174B00229A60174B00221A60154B002242
:1020A0005A60144B4FF47A729A60134B00221A60F4
:1020B000114B00225A60104B00229A600F4B9B6814
:1020C0000F4A93600F4B4FF000021A600D4B4FF018
:1020D00000025A600023FB81EEE000BF840800206C
:1020E000700600203C080020E80800205C0A002060
:1020F000340A0020E4090020680A0020A40D002012
:10210000CC0A002084090020B7F90E20D4491346D8
:102110005B0013449B000B444FF000021A60B7F9B8
:102120000E20CF4913465B0013449B000B4404333D
:102130004FF000021A60B7F90E20C94913465B0040
:1021400013449B000B4408334FF000021A60B7F9A8
:102150000E20C44913465B0013449B000B444FF010
:1021600000021A60B7F90E20BE4913465B00134403
:102170009B000B4404334FF000021A60B7F90E20A5
:10218000B84913465B0013449B000B4408334FF0DF
:1021900000021A60B7F90E20B34913465B001344DE
:1021A0009B000B444FF000021A60B7F90E20AE49B5
:1021B00013465B0013449B000B4404334FF00002B2
:1021C0001A60B7F90E20A84913465B0013449B0020
:1021D0000B4408334FF000021A60B7F90E20A349F0
:1021E00013465B0013449B000B444FF000021A603F
:1021F000B7F90E209D4913465B0013449B000B4426
:1022000004334FF000021A60B7F90E2097491346C5
:102210005B0013449B000B4408334FF000021A602C
:10222000B7F90E20924913465B0013449B000B4400
:102230004FF000021A60B7F90E208D4913465B007B
:1022400013449B000B4404334FF000021A60B7F9AB
:102250000E20874913465B0013449B000B44083350
:102260004FF000021A60B7F90E20824913465B0056
:1022700013449B000B444FF000021A60B7F90E2084
:102280007C4913465B0013449B000B4404334FF01E
:1022900000021A60B7F90E20764913465B0013441A
:1022A0009B000B4408334FF000021A60B7F90E3060
:1022B0009BB201339BB2FB81B7F90E30032B7FF742
:1022C00023AF06F0EFFFFFF7D5F80346002B01D050
:1022D00001F074FF00F0AEFB00F05AFE00F016FCB7
:1022E00000F066FC00F0C8FC00F028FE00F054FD91
:1022F00000F0EAFD00F08AFC5F48FFF717FA0020C3
:1023000001F000FC012001F0FDFB002001F05AFC6F
:10231000012001F057FC032100200DF0B9FA032140
:1023200000200DF04FF8032100200DF039FB0321B0
:1023300000200DF0CFF89FED510A022100200DF092
:10234000B5FB0422022100200DF0F6FBE02217214C
:1023500000200DF0B7FD6C22112100200DF0B2FD20
:102360007B1D1A46152100200DF084FD7B7923F09A
:102370000503DBB21A46152100200DF0A3FD02F083
:102380009BF800213E4809F079FF04213C4809F000
:1023900075FF08213A4809F071FF0C21384809F00F
:1023A0006DFF0021374809F05FFE0421354809F030
:1023B0005BFE0821334809F057FE0C21314809F033
:1023C00053FE314809F094FD3048FFF7E5F93048F5
:1023D00001F0A6FF0123FB80B7F9063019462D480E
:1023E00004F080F82B4804F094F82B4B00221A706C
:1023F0002A4B00221A702A48FFF798F901F016FCC0
:102400002848FFF793F901F053FD274A02210020E5
:102410000DF0A2F8254A012100200DF09DF8244B73
:102420001B68002B04D0224B00221A600CF02AFB00
:10243000204B1B78002B04D002F0B4FF1D4B002270
:102440001A701D4B1B68012B40F085821A4B00222D
:102450001A601A4B1B680133184A136030E000BF42
:10246000680D0020880B0020B4090020B80C002063
:10247000B8080020B0070020901301080020D045C4
:10248000400B00202C0700207C0A0020B80600200A
:10249000A4090020740E0020640D00209009002083
:1024A000BC130108E4130108A00900209C080020C7
:1024B000B801002024000020D4010020EC010020FD
:1024C0000D4B4FF000021A600B4B4FF000025A60A8
:1024D000094B4FF000029A60084B4FF000021A605F
:1024E000064B4FF000025A60044B4FF000029A6016
:1024F0000023FB817AE000BFAC0800209008002098
:10250000BD4B93ED007AB7F90E20BC4913465B0032
:1025100013449B000B44D3ED007A77EE277AB64B39
:10252000C3ED007AB44B93ED017AB7F90E20B349AD
:1025300013465B0013449B000B440433D3ED007A35
:1025400077EE277AAC4BC3ED017AAB4B93ED027A71
:10255000B7F90E20A94913465B0013449B000B44B6
:102560000833D3ED007A77EE277AA34BC3ED027AD6
:10257000A34B93ED007AB7F90E20A24913465B00F6
:1025800013449B000B44D3ED007A77EE277A9C4BE3
:10259000C3ED007A9A4B93ED017AB7F90E20994971
:1025A00013465B0013449B000B440433D3ED007AC5
:1025B00077EE277A924BC3ED017A914B93ED027A35
:1025C000B7F90E208F4913465B0013449B000B4460
:1025D0000833D3ED007A77EE277A894BC3ED027A80
:1025E000B7F90E309BB201339BB2FB81B7F90E30C5
:1025F000042B85DD804B1B681846FDF7A5FF7CA3E7
:10260000D3E90023FDF7F8FF02460B4610461946B2
:10261000FEF7A2FA0346784A1360774B5B681846C8
:10262000FDF792FF72A3D3E90023FDF7E5FF024611
:102630000B4610461946FEF78FFA03466E4A536062
:102640006D4B9B681846FDF77FFF69A3D3E9002314
:10265000FDF7D2FF02460B4610461946FEF77CFAFC
:102660000346654A9360664B1B681846FDF76CFF8E
:102670005FA3D3E90023FDF7BFFF02460B461046D8
:102680001946FEF769FA03465D4A13605C4B5B68C6
:102690001846FDF759FF56A3D3E90023FDF7ACFF19
:1026A00002460B4610461946FEF756FA0346544AB0
:1026B0005360534B9B681846FDF746FF4CA3D3E984
:1026C0000023FDF799FF02460B4610461946FEF718
:1026D00043FA03464A4A9360474BD3ED007AFDEE36
:1026E000E77A17EE902A484B1A60434BD3ED017AF4
:1026F000FDEEE77A17EE902A434B5A603E4BD3ED3E
:10270000027AFDEEE77A17EE902A3F4B9A603C4B37
:10271000D3ED007AFDEEE77A17EE902A3B4B1A6074
:10272000374BD3ED017AFDEEE77A17EE902A374B5F
:102730005A60334BD3ED027AFDEEE77A17EE902A1A
:10274000324B9A60324A2E492B48FEF7D1FB314971
:102750002F4801F0FFFD304B9B78803B9BB21A461F
:102760001203D21AD2001A44520013449BB21AB276
:102770002A4B1A80284BDB789BB21A4652001A4427
:10278000920013449BB21AB2254B1A80224B1B793C
:10279000803B9BB21A461203D21AD2001A4452004E
:1027A00013449BB21AB21F4B1A801B4B5B79803BC0
:1027B0009BB21A4652001A44920013449BB21AB2BA
:1027C000194B1A80144BDB791AB2184B1A80174B2D
:1027D000B3F900309BB203F00403002B2FD0144B4D
:1027E00001221A60134B01221A60012024E000BF6D
:1027F0009A9999999999C93FAC08002074070020CB
:10280000900800204808002078090020A008002037
:1028100054060020A40D0020BC010020360E00202C
:10282000E20D0020E40D0020E00D0020F80800205B
:10283000C8010020D001002001F0AAF905E0694B91
:1028400000221A60684B00221A60684B1B68002B3C
:1028500009D0674B01221A7001F068FB01F08CFB74
:1028600001F0A0FC11E0624B00221A70614B0022C3
:102870001A805C4B00221A605B4B00221A60002019
:1028800001F0A0F9012001F09DF95B4BDB7903F029
:102890000203002B05D0594B01221A60002001F0E1
:1028A00077F95749574801F0D1FE524BB3F9003040
:1028B000C72B07DC544B4FF000021A60524B4FF00D
:1028C00000025A604E4BD3ED007A9FED507A67EECE
:1028D000877AFDEEE77A17EE903A1AB24C4B1A80DF
:1028E000474BD3ED017A9FED497A67EE877AFDEE8B
:1028F000E77A17EE903A1AB2454B5A80404BD3ED27
:10290000027A9FED427A67EE877AFDEEE77A17EE5C
:10291000903A1AB23E4B9A80364BB3F90030C72B2F
:1029200007DC384B4FF000029A60354B4FF0000245
:102930009A60344B1B68374A1360324B5B68354AE8
:102940005360304B9B68334A9360334B334A2C4976
:102950003048FEF799FF0221314807F063FD034636
:10296000012B02D12F4B01221A702F4803F0F1FDE9
:102970000346002B3FF453AD2B4803F0DDFD2B4BFA
:102980001B680133294A1360BB680133BB60184BD5
:102990001B78002B14D0134B1B68002B10D0BA6887
:1029A000234B83FB02131911D317CB1A322101FBDE
:1029B00003F3D31A002B14D1012001F0E9F810E041
:1029C000BA681B4B83FB02131911D317CB1A3221A0
:1029D00001FB03F3D31A002B7FF421AD012001F09A
:1029E0000BF91CE5C8010020D0010020FC010020EB
:1029F000E60D0020E20D0020BC010020C4010020F3
:102A0000A40D0020CC0A0020840900200010B3454A
:102A1000740A0020E8080020B806002054060020B0
:102A20000000024090090020740E0020F0010020F8
:102A30001F85EB5180B594B000AF07F12003302221
:102A4000002118460DF0A0FA07F10C0300221A60CD
:102A50005A609A60DA601A610023BB60294B1B6CD4
:102A6000284A43F080531364264B1B6C03F08053B9
:102A7000BB60BB6800237B60234B1B6823F440438F
:102A8000214A43F4004313601F4B1B6803F4404387
:102A90007B607B6801233B624FF480337B620223BF
:102AA000BB634FF48003FB6310233B644FF4A873B4
:102AB0007B640423BB640723FB6407F120031846EF
:102AC00007F058FE0346002B01D001F077FB0F23DF
:102AD000FB6002233B6100237B614FF48053BB61A9
:102AE0000023FB6107F10C030221184608F0BAF835
:102AF0000346002B01D001F061FB00BF5037BD46FB
:102B000080BD00BF003802400070004080B584B036
:102B100000AF3B4600221A605A609A60DA60214B8F
:102B2000214A1A601F4B4FF480325A601D4B00221D
:102B30009A601C4B00221A611A4B00221A76194B1C
:102B4000002283F82020174B0022DA62154B174A27
:102B50009A62144B0022DA60124B0122DA61114BA7
:102B6000002283F830200F4B01225A610D4806F0F5
:102B700039FC0346002B01D001F020FB09233B6008
:102B800001237B600023BB603B461946054806F0E5
:102B9000EDFD0346002B01D001F010FB00BF103704
:102BA000BD4680BD30090020002001400100000F1B
:102BB00080B500AF124B134A1A60114B124A5A608B
:102BC0000F4B00229A600E4B0022DA600C4B4FF440
:102BD00080421A610A4B00225A61094B00229A6115
:102BE000074B0022DA61064B00221A62044807F004
:102BF0007DFC0346002B01D001F0E0FA00BF80BD50
:102C0000E807002000580040A086010080B500AF12
:102C1000174B184A1A60164B4FF482725A60144BC5
:102C200000229A60124B0022DA60114B00221A61D6
:102C30000F4B00225A610E4B4FF400729A610C4BFD
:102C40001822DA610A4B00221A62094B00225A62EA
:102C5000074B00229A62064B0A22DA62044808F007
:102C6000FBF90346002B01D001F0A8FA00BF80BD9C
:102C7000E80A00200030014080B58AB000AF07F1BB
:102C8000180300221A605A609A60DA6007F1100394
:102C900000221A605A603B4600221A605A609A600D
:102CA000DA603C4B4FF080421A603A4B14225A6073
:102CB000384B00229A60374B47F6FF72DA60354B8B
:102CC00000221A61334B00229A61324809F0C0F8A1
:102CD0000346002B01D001F071FA4FF48053BB6121
:102CE00007F1180319462B4809F036FE0346002B5E
:102CF00001D001F063FA274809F066FA0346002B79
:102D000001D001F05BFA00233B6100237B6107F1F6
:102D1000100319461F480AF0EBFA0346002B01D0B6
:102D200001F04CFA0A233B6001237B600023BB6067
:102D30000023FB603B4600221946164809F0BAFC06
:102D40000346002B01D001F039FA3B460422194614
:102D5000104809F0AFFC0346002B01D001F02EFA19
:102D60003B46082219460B4809F0A4FC0346002BF9
:102D700001D001F023FA3B460C221946054809F020
:102D800099FC0346002B01D001F018FA00BF283748
:102D9000BD4680BD400B002080B58EB000AF07F16E
:102DA000280300221A605A609A60DA6007F1200353
:102DB00000221A605A603B1D00221A605A609A6015
:102DC000DA601A615A619A613D4B3E4A1A603C4B87
:102DD00054225A603A4B00229A60394B40F2CF722B
:102DE000DA60374B00221A61354B00229A61344871
:102DF00009F02EF80346002B01D001F0DFF94FF463
:102E00008053BB6207F1280319462D4809F0A4FD41
:102E10000346002B01D001F0D1F9294809F0CAF886
:102E20000346002B01D001F0C9F900233B620023C7
:102E30007B6207F12003194621480AF059FA03463C
:102E4000002B01D001F0BAF960237B600023BB6046
:102E50000023FB6000237B613B1D002219461848BC
:102E600009F0BCFC0346002B01D001F0A7F93B1D83
:102E700004221946124809F0B1FC0346002B01D088
:102E800001F09CF93B1D082219460D4809F0A6FCEB
:102E90000346002B01D001F091F93B1D0C2219468D
:102EA000074809F09BFC0346002B01D001F086F98E
:102EB000034803F0D9F900BF3837BD4680BD00BFD5
:102EC0002C0700200008004080B584B000AF3B46CE
:102ED00000221A605A609A60DA60164B164A1A602D
:102EE000144B33225A60134B00229A60114B40F26C
:102EF000CF72DA600F4B00221A610E4B00229A61EA
:102F00000C4808F0A5FF0346002B01D001F056F94C
:102F10004FF480533B603B461946064809F01CFDC0
:102F20000346002B01D001F049F900BF1037BD4620
:102F300080BD00BF7C0A00200040014080B500AF8A
:102F4000114B124A1A60104B4FF4E1325A600E4B8B
:102F500000229A600C4B0022DA600B4B00221A61AF
:102F6000094B0C225A61084B00229A61064B002241
:102F7000DA6105480AF03EFA0346002B01D001F061
:102F80001DF900BF80BD00BFF00900200010014006
:102F900080B58AB000AF07F1140300221A605A60AE
:102FA0009A60DA601A6100233B61654B1B6B644ACF
:102FB00043F004031363624B1B6B03F004033B6198
:102FC0003B690023FB605E4B1B6B5D4A43F0800353
:102FD00013635B4B1B6B03F08003FB60FB680023F8
:102FE000BB60574B1B6B564A43F001031363544BB2
:102FF0001B6B03F00103BB60BB6800237B60504B7D
:103000001B6B4F4A43F0020313634D4B1B6B03F0E2
:1030100002037B607B6801224FF40051494807F0AE
:1030200019FA01220121484807F014FA002234213C
:10303000454807F00FFA01224FF48071434807F02A
:1030400009FA4FF400537B610123BB610023FB614C
:1030500000233B6207F1140319463A4806F07AFF51
:103060004FF480437B610323BB610023FB6107F1C5
:1030700014031946334806F06DFF10237B61344B6F
:10308000BB610023FB6107F1140319462F4806F0CA
:1030900061FF01237B610123BB610123FB610023ED
:1030A0003B6207F114031946274806F053FF042337
:1030B0007B610123BB610023FB6100233B6207F1BD
:1030C00014031946204806F045FF4FF480737B61D6
:1030D0000123BB610023FB6100233B6207F1140362
:1030E00019461A4806F036FF4FF4C0537B6102239D
:1030F000BB610023FB6103233B620A237B6207F170
:1031000014031946114806F025FF30237B61112373
:10311000BB610023FB6100233B6207F114031946E6
:10312000094806F017FF002200210A2006F03BFEA6
:103130000A2006F054FE00BF2837BD4680BD00BF00
:103140000038024000080240000402400000024033
:103150000000111080B58EB000AFF860B9607A60E1
:1031600007F130031A46022100200CF05BFCB7F98E
:103170003030FB61B7F932303B62B7F934307B62F3
:1031800007F128031A46012100200CF04BFCB7F987
:1031900028303B61B7F92A307B61B7F92C30BB612D
:1031A0007A68022100200CF0D7F93B6A5A42FB688A
:1031B0001A60FA69FB685A607A6AFB689A607B69F0
:1031C0005A42BB681A603A69BB685A60BA69BB6800
:1031D0009A6000BF3837BD4680BD000080B586B01C
:1031E00002AF7860AB4B1B68002B40F0B780AA4B56
:1031F0001B680133A84A1360A74B1B68B3F5487FCF
:1032000040F3AC80A54AA649A648FFF7A3FFA64B0A
:103210001A68A44B1B681344A34A1360A24B5A6854
:10322000A04B5B681344A04A53609F4B9A689D4B28
:103230009B6813449C4A93609C4B1A68984B1B688C
:1032400013449A4A1360994B5A68954B5B68134430
:10325000964A5360954B9A68914B9B681344934AE6
:1032600093608D4B1B68B3F5C86F77DB8E4B1B6883
:1032700007EE903AF8EEE77A9FED8D7A67EE877A5F
:10328000FDEEE77A17EE902A8A4B1A60864B5B6850
:1032900007EE903AF8EEE77A9FED857A67EE877A47
:1032A000FDEEE77A17EE902A824B5A607E4B9B68C0
:1032B00007EE903AF8EEE77A9FED7D7A67EE877A2F
:1032C000FDEEE77A17EE902A7A4B9A60774B1B68EF
:1032D00007EE903AF8EEE77A9FED757A67EE877A17
:1032E000FDEEE77A17EE902A734B1A606F4B5B681E
:1032F00007EE903AF8EEE77A9FED6D7A67EE877AFF
:10330000FDEEE77A17EE902A6B4B5A60674B9B688D
:1033100007EE903AF8EEE77A9FED657A67EE877AE6
:10332000FDEEE77A17EE902A634B9A605E4B00221F
:103330001A605D4B00225A605B4B00229A605B4B27
:1033400000221A60594B00225A60584B00229A60A2
:10335000514B00221A604F4B01221A604D4B1B68E3
:10336000012B40F0A883554B1B680133534A13606F
:10337000534B1B680133524A1360484A4849494835
:10338000FFF7E8FE4F4B1B68012B40F0CB80464B0C
:103390001A68444B1B681344434A1360424B5A68F3
:1033A000404B5B681344404A53603F4B9A683D4B27
:1033B0009B6813443C4A93603C4B1A68384B1B682B
:1033C00013443A4A1360394B5A68354B5B681344CF
:1033D000364A5360354B9A68314B9B681344334AE5
:1033E0009360394B1B680133374A1360364B1B68B7
:1033F000B3F5487FC0F296802B4B1B6807EE903ADE
:10340000F8EEE77A9FED2A7A67EE877AFDEEE77AA3
:1034100017EE902A274B1A60234B5B6807EE903A11
:10342000F8EEE77A9FED227A67EE877AFDEEE77A8B
:1034300017EE902A1F4B5A601B4B9B6807EE903A81
:10344000F8EEE77A9FED1A7A67EE877AFDEEE77A73
:1034500017EE902A174B9A60144B1B6807EE903AB0
:10346000F8EEE77A9FED127A67EE877AFDEEE77A5B
:1034700017EE902A104B1A600C4B5B6807EE903ADF
:10348000F8EEE77A9FED0A7A67EE877AFDEEE77A43
:103490001CE000BFE4010020E8010020E40A002055
:1034A00094090020480600205C0A0020340A00200D
:1034B0000AD7A33AE4090020680A0020D8010020B6
:1034C000DC010020C4010020CC01002017EE902A6E
:1034D000974B5A60974B9B6807EE903AF8EEE77A65
:1034E0009FED957A67EE877AFDEEE77A17EE902AE0
:1034F0008F4B9A60914B00221A60904B00225A60C9
:103500008E4B00229A608B4B00221A60894B00225E
:103510005A60884B00229A60894B00221A60894BBE
:1035200000221A60884B1A68884B1B68D31A864A97
:103530001360854B5A68854B5B68D31A824A536087
:10354000814B9A68814B9B68A3F57A73D31A7E4AA4
:1035500093607F4B1A68764B1B68D31A7C4A1360C2
:103560007B4B5A68724B5B68D31A794A5360784B2D
:103570009A686F4B9B68D31A754A9360724B1968AF
:10358000744B1B685A1E07EE901AF8EEE77A7249E0
:1035900013465B0013449B000B44C3ED007A6A4B57
:1035A00059686C4B1B685A1E07EE901AF8EEE77AC2
:1035B000694913465B0013449B000B440433C3ED7D
:1035C000007A614B9968634B1B685A1E07EE901A8C
:1035D000F8EEE77A604913465B0013449B000B4406
:1035E0000833C3ED007A5D4B93ED027A584B1B68AC
:1035F00007EE903AF8EEE77A27EE277A574BD3EDAD
:10360000036A574BD3ED007A66EEA77A37EE277A36
:10361000524BD3ED046A524BD3ED037A66EEA77A90
:1036200037EE277A4D4BD3ED006A4E4BD3ED007A3F
:1036300066EEA77A37EE277A484BD3ED016A494BFD
:10364000D3ED037A66EEA77A77EE277A464BC3ED81
:10365000007A424B93ED027A3D4B5B6807EE903A5D
:10366000F8EEE77A27EE277A3C4BD3ED036A3C4B22
:10367000D3ED017A66EEA77A37EE277A374BD3ED92
:10368000046A374BD3ED047A66EEA77A37EE277AD1
:10369000324BD3ED006A334BD3ED017A66EEA77A55
:1036A00037EE277A2D4BD3ED016A2E4BD3ED047AFA
:1036B00066EEA77A77EE277A2B4BC3ED017A274B7C
:1036C00093ED027A224B9B6807EE903AF8EEE77A88
:1036D00027EE277A214BD3ED036A214BD3ED027AF3
:1036E00066EEA77A37EE277A1C4BD3ED046A1C4BA3
:1036F000D3ED057A66EEA77A37EE277A174BD3ED2E
:10370000006A184BD3ED027A66EEA77A37EE277A75
:10371000124BD3ED016A134BD3ED057A66EEA77A0F
:1037200077EE277A104BC3ED027A0123FB608EE01F
:10373000680A0020340A00200AD7A33A5C0A002055
:10374000CC010020C401002048060020E40900202C
:1037500094090020DC0100207C06002004000020E9
:10376000B80C0020B40900203C080020FB685A1E59
:10377000664913465B0013449B000B441968634879
:10378000FA6813465B0013449B0003441960FB680E
:103790005A1E5E4913465B0013449B000B440433DE
:1037A00019685A48FA6813465B0013449B000344A7
:1037B00004331960FB685A1E544913465B001344D6
:1037C0009B000B44083319685048FA6813465B00A5
:1037D00013449B00034408331960FB685A1E4C498C
:1037E00013465B0013449B000B4419684848FA6871
:1037F00013465B0013449B0003441960FB685A1E88
:10380000434913465B0013449B000B44043319687F
:103810003F48FA6813465B0013449B00034404339B
:103820001960FB685A1E3A4913465B0013449B001B
:103830000B44083319683648FA6813465B00134492
:103840009B00034408331960FB68013BFB60FB6885
:10385000002B8BDC2F4B1B6807EE903AF8EEE77AD3
:103860002A4BC3ED007A2B4B5B6807EE903AF8EEDB
:10387000E77A264BC3ED017A264B9B6807EE903A18
:10388000F8EEE77A214BC3ED027A234B1B68204AFE
:103890001360214B5B681E4A53601F4B9B681C4A98
:1038A00093601E4B1B685A1E1B4B19681C4813461D
:1038B0005B0013449B0003441960184B1B685A1E9D
:1038C000154B5968164813465B0013449B0003448C
:1038D00004331960114B1B685A1E0F4B996810482E
:1038E00013465B0013449B000344083319600B4BE1
:1038F0001B68052B40F08680084B00221A60094B9C
:1039000001221A600023BB6079E000BFB80C0020E0
:10391000B4090020940900203C080020DC010020AC
:10392000F40C0020D40100206549BA6813465B00FE
:1039300013449B000B4419686248BA6813465B0045
:1039400013449B00034419605D49BA6813465B0049
:1039500013449B000B44043319685A48BA68134651
:103960005B0013449B000344043319605449BA6854
:1039700013465B0013449B000B44083319685148FD
:10398000BA6813465B0013449B0003440833196074
:103990004D49BA6813465B0013449B000B441968F9
:1039A0004A48BA6813465B0013449B0003441960FD
:1039B0004549BA6813465B0013449B000B4404332B
:1039C00019684248BA6813465B0013449B000344DD
:1039D000043319603C49BA6813465B0013449B00EA
:1039E0000B44083319683948BA6813465B0013441E
:1039F0009B00034408331960BB680133BB60BB689C
:103A0000042B91DD324BD3ED007A9FED327A67EED5
:103A1000877A314BC3ED007A2D4BD3ED017A9FEDC0
:103A20002D7A67EE877A2C4BC3ED017A284BD3EDC4
:103A3000027A9FED287A67EE877A274BC3ED027AE8
:103A4000264B93ED027A244BD3ED027ADFED246A04
:103A500067EEA67A77EE277A204BC3ED027A214BE8
:103A6000B3F90030C72B07DC1F4B4FF000029A6000
:103A70001A4B4FF000029A601C4B1B78002B0CD0A5
:103A80001B4B1B68002B08D01A4B00931A4B1B4A88
:103A900011491B48FEF714F802E0164800F040FCFC
:103AA000104BB3F90030C72B02DC124800F038FC91
:103AB000104800F08BFB00BF1037BD4680BD00BF33
:103AC0007C06002074070020F40C00204808002029
:103AD0003C080020A9689237500A0020A40D00205D
:103AE0000AD7A33AE20D0020CC0A0020E60D002000
:103AF000C8010020A4090020B806002054060020B8
:103B0000E808002080B58AB000AF0346FB71FB795E
:103B1000002B0DD100233B611A4B1B6B194A43F05C
:103B200002031363174B1B6B03F002033B613B69FA
:103B3000FB79012B0DD10023FB60124B1B6B114A4B
:103B400043F0020313630F4B1B6B03F00203FB6094
:103B5000FB68FB790C4A52F823307B610123BB617F
:103B60000023FB6102233B62FB79084A52F82330B1
:103B700007F114021146184606F0ECF900BF283789
:103B8000BD4680BD00380240E4190108180000203D
:103B900080B582B000AF0346FB71FB79074A52F84B
:103BA0002300FB79064A52F823309BB200221946C3
:103BB00006F050FC00BF0837BD4680BD180000204D
:103BC000E419010880B582B000AF0346FB71FB79B0
:103BD000074A52F82300FB79064A52F823309BB279
:103BE0000122194606F036FC00BF0837BD4680BDED
:103BF00018000020E419010880B582B000AF034628
:103C0000FB71FB79074A52F82320FB79064951F8EA
:103C100023309BB21946104606F035FC00BF08372A
:103C2000BD4680BD18000020E4190108F0B58FB032
:103C300008AF01237B610023FB7400233B82834890
:103C4000FDF774FD02F0FEFC814B1B681B0EDAB21F
:103C5000804B1A70804B1B68DAB27E4B5A707F4BD8
:103C60001B681B0ADAB27B4B9A707B4B1B681B0CE0
:103C7000DAB2784BDA70FB7C302B01D98C2200E071
:103C80002822744B1A71734BC0225A710AF0B2FE8B
:103C900002F00AFD7248FDF749FD07F1100207F135
:103CA0001303114618460AF057FE0346002B40F056
:103CB000BC8002F0F9FC6B48FDF738FD0AF090FB80
:103CC00003467B617B69002B06D0674B01221A708B
:103CD0006648FDF72BFDB2E0654B0193654B009301
:103CE000654B0722002101200AF08CF903467B6115
:103CF0007B69002B03D06148FDF718FD9FE0554814
:103D00000BF089F978615E4A07F1080392E8030035
:103D100018600433198002330A0C1A70564B188845
:103D2000544B198807F108030093072300220AF077
:103D3000DBFC03467B615348FDF7F8FC012303934A
:103D4000514B029300230193102300930723002279
:103D5000002101200AF0A1FA03467B617B69002B58
:103D600006D0414B01221A704848FDF7DFFC66E09F
:103D7000FB7C9C463B8A1B0A9BB29E463B8A1B09E6
:103D80009BB203F00F02FB7C302B04D93B8A03F07B
:103D90000F03603300E061232E49497908462D491D
:103DA00009790C462B49C9780D462A4989780E466F
:103DB00028494978796027490978069179680591F9
:103DC000049603950294019000931346724661464F
:103DD0002F48FDF7ABFC042101200AF04AFD00F05A
:103DE000C9FD03467B617B69002B03D12948FDF7A0
:103DF0009DFC05E01C4B01221A702748FDF796FC3C
:103E000000F042FD03467B617B69002B03D1234810
:103E1000FDF78CFC05E0144B01221A702048FDF7D9
:103E200085FC2048FDF782FC05E00F4B01221A704B
:103E30001D48FDF77BFC1D48FDF778FC03E00A4BAD
:103E400001221A7000BF1C37BD46F0BD08140108DE
:103E5000147AFF1FE0070020107AFF1F187AFF1F57
:103E60002814010848140108E00100206414010826
:103E700028070020400A0020300D0020801401088F
:103E8000541601089414010840E20100B814010816
:103E9000E81401084815010874150108A015010867
:103EA000CC150108F8150108101601083416010890
:103EB00080B582B000AF00F00BFF03467B607B68EB
:103EC000002B03D11348FDF731FC02E01248FDF747
:103ED0002DFC00F04FFD03467B607B68002B03D177
:103EE0000E48FDF723FC02E00D48FDF71FFC00F033
:103EF000CBFC03467B607B68002B03D10948FDF7B0
:103F000015FC02E00848FDF711FC00BF0837BD466C
:103F100080BD00BF5C16010888160108481501081D
:103F200074150108A0150108CC15010880B586B0EC
:103F300000AF0E4B1B68FB600C4B5B683B610B4B8F
:103F40009B687B610A4B1B683B60094B5B687B602D
:103F5000074B9B68BB603A46394607F10C0318468D
:103F600001F04CF800BF1837BD4680BD4806002060
:103F7000940900200000000080B586B000AF002347
:103F80003B610023FB820023FB810023BB817A4835
:103F900005F06CFA7949784805F04FFB0346002B91
:103FA00033D1754805F0D4FB0346754A1360744B52
:103FB0001B681846FCF7A6FA6BA3D3E90023FCF7AD
:103FC0001BFB02460B461046194669A3D3E90023A2
:103FD000FCF73CFC02460B46104619464FF0000227
:103FE000684BFCF709FB02460B46104619464FF09A
:103FF0000002654BFCF72AFC02460B4610461946A8
:10400000FCF7AAFD0346614A13605B4805F0E2FA3B
:104010005F4BD3ED007AFDEEE77A17EE903ABB6086
:104020005B4B93ED007ABB6807EE903AF8EEE77AC7
:1040300077EE677A9FED577A67EE877AFDEEE77A3B
:1040400017EE903A7B60BB68642202FB03F37A6848
:1040500013443B614D4BD3ED007A9FED4F7A77EEE1
:10406000C77A9FED4C7A27EE877ADFED4C6AC7EE70
:10407000267A464BC3ED007A444BD3ED007AF5EE39
:10408000C07AF1EE10FA03D5404B4FF000021A60EF
:104090003E4BD3ED007AFDEEE77A17EE903ABB6027
:1040A0003A4BD3ED007AFDEEE77A17EE902ABB6823
:1040B000D21A13469B0013445B007B60BB689BB223
:1040C0001A46920013445B009AB27B689BB2134479
:1040D000FB82FB8AB3F57A7F02D94FF47A73FB82B5
:1040E0002F4BD3ED007AFDEEE77A17EE903ABB60E6
:1040F0002B4B93ED007ABB6807EE903AF8EEE77A27
:1041000077EE677AB2EE047A67EE877AFDEEE77AA9
:1041100017EE903A7B60BB689BB21A46920013443C
:104120005B009AB27B689BB213449BB2BB81FA1CC2
:104130003B46114618460AF0A5FF97F903309BB29B
:104140001A46920013445B009BB2FB81B7F90E3014
:10415000B7F90C20F98A386901F016F800BF183752
:10416000BD4680BDAFF300806666666666660A403F
:104170000000000000FEAF403009002040420F0068
:10418000F408002000003E4000003440F40100200C
:10419000E40A00200000C842CDCC6C40F8FFFF3E8E
:1041A0009C08002080B500AF034B1B68DBB21846AB
:1041B00001F0A6F800BF80BDC801002080B400AFA8
:1041C00000BFBD465DF8047B7047000080B483B03B
:1041D00000AF78607B68D3ED007A9FED4F7AF4EE04
:1041E000C77AF1EE10FA05DB4C4B1B6840F26C729B
:1041F0005A6316E07B68D3ED007AF5EEC07AF1EEF3
:1042000010FA04D8454B1B6800225A6309E07B680A
:10421000D3ED007A414B1B68FCEEE77A17EE902A4B
:104220005A637B68D3ED017A9FED3B7AF4EEC77A4F
:10423000F1EE10FA05DB394B1B6840F26C729A63A1
:1042400016E07B68D3ED017AF5EEC07AF1EE10FA54
:1042500004D8324B1B6800229A6309E07B68D3EDD7
:10426000017A2E4B1B68FCEEE77A17EE902A9A63D0
:104270007B68D3ED027A9FED287AF4EEC77AF1EEEF
:1042800010FA05DB254B1B6840F26C72DA6316E00E
:104290007B68D3ED027AF5EEC07AF1EE10FA04D81D
:1042A0001E4B1B680022DA6309E07B68D3ED027ABB
:1042B0001A4B1B68FCEEE77A17EE902ADA637B68EC
:1042C000D3ED037A9FED147AF4EEC77AF1EE10FA8B
:1042D00005DB124B1B6840F26C721A6416E07B68B7
:1042E000D3ED037AF5EEC07AF1EE10FA04D80B4B59
:1042F0001B6800221A6409E07B68D3ED037A074B40
:104300001B68FCEEE77A17EE902A1A6400BF0C37A0
:10431000BD465DF8047B70470080ED442C0700200B
:1043200080B483B000AF78607B684FF000021A6001
:104330007B684FF000025A607B684FF000029A6081
:104340007B684FF00002DA6000BF0C37BD465DF8B5
:10435000047B7047B0B58EB000AF786039607B6881
:1043600093ED007A7B68D3ED007A67EE277AC7ED8C
:104370000D7A7B6893ED017A7B68D3ED017A67EE65
:10438000277AC7ED0C7A7B6893ED027A7B68D3EDD0
:10439000027A67EE277AC7ED0B7A7B6893ED037A92
:1043A0007B68D3ED037A67EE277AC7ED0A7A7B68DC
:1043B000D3ED007A77EEA77AC7ED097A7B68D3ED63
:1043C000017A77EEA77AC7ED087A7B68D3ED027A97
:1043D00077EEA77AC7ED077A7B68D3ED037A97ED7E
:1043E000087A67EE277AC7ED067A7B68D3ED027A02
:1043F00097ED097A67EE277AC7ED057A7B68D3EDEA
:10440000017A97ED097A67EE277AC7ED047A7B681F
:10441000D3ED037A97ED077A67EE277AC7ED037A33
:1044200097ED047AD7ED037A77EE277A17EE900AA4
:10443000FCF78AF804460D4697ED0D7AD7ED0A7A17
:1044400037EE277AD7ED0C7A37EE677AD7ED0B7A0D
:1044500077EE677A17EE900AFCF776F802460B467D
:1044600043EC112B45EC104B0CF03CFA53EC102BA9
:1044700010461946FCF770FB02463B681A6097ED40
:10448000057AD7ED067A77EE677A17EE900AFCF791
:104490005BF802460B4643EC102B0CF0E9F953ECA9
:1044A000102B10461946FCF757FB02463B685A6032
:1044B00000BF3837BD46B0BD80B500AF0E4B0022FF
:1044C0001A700E4B4FF47A721A600D4B00221A804C
:1044D0000C4B00221A800C4B00221A800B4B00223E
:1044E0001A8000F019F80A4B00221A60094800F0FF
:1044F00067F900BF80BD00BFE60D0020B40D0020AD
:10450000E40D0020E00D0020E20D0020360E00201A
:10451000B80D0020EC0D002080B483B000AF134B29
:1045200000221A7000237B6016E0114A7B68134456
:1045300000221A700F4A7B68002142F823100E4AAD
:104540007B68002142F823100C4A7B68002142F866
:1045500023107B6801337B607B68032BE5D900BFA8
:1045600000BF0C37BD465DF8047B7047E60D0020A8
:10457000BC0D0020C00D0020380E0020D00D002002
:1045800080B582B000AF7860002000F005F800BF71
:104590000837BD4680BD000080B483B000AF7860AE
:1045A000234BB3F90030002B14D1224BB3F9003068
:1045B00013F5966F0EDA204BB3F90030B3F5966F12
:1045C00008DD1E4BB3F9003013F5966F02DA1C4B71
:1045D00001221A60164BB3F90030002B22D1154B83
:1045E000B3F9003013F5966F1CDA134BB3F90030B2
:1045F00013F5966F16DA114BB3F90030B3F5966FD9
:1046000010DD104B1B68002B06D10E4B01221A60E7
:104610000D4B01221A6005E00A4B00221A600A4B7A
:1046200000221A6000BF0C37BD465DF8047B70475E
:10463000E20D0020E00D0020E40D0020360E0020E9
:10464000C4010020C8010020D001002080B483B044
:1046500000AF78603960514BB3F900301A46504BC7
:104660001A604F4B1B68B3F5E16F04DD4C4B4FF400
:10467000E1621A6007E04A4B1B6813F5E16F02DA4A
:10468000474B484A1A60464B1B685B4207EE903A1C
:10469000F8EEE77A9FED447A27EE877ADFED436AFA
:1046A000C7EE267A7B68C3ED007A414BB3F9003040
:1046B0001A463B4B1A603A4B1B68B3F5E16F04DDB9
:1046C000374B4FF4E1621A6007E0354B1B6813F576
:1046D000E16F02DA324B334A1A60314B1B685B429E
:1046E00007EE903AF8EEE77A9FED2F7A27EE877A79
:1046F000DFED2E6AC7EE267A7B68C3ED017A2D4B7B
:10470000B3F900301A46264B1A60254B1B68B3F5E7
:10471000E16F04DD224B4FF4E1621A6007E0204BA9
:104720001B6813F5E16F02DA1D4B1E4A1A60224B1B
:104730001B68012B1FD11A4B1B68B3F5167F0ADDCE
:104740007B68D3ED027A9FED1D7A77EE877A7B68DE
:10475000C3ED027A1CE0124B1B6813F5167F17DAC3
:104760007B68D3ED027A9FED157A77EEC77A7B6886
:10477000C3ED027A0CE00A4B1B6813F5167F07DDC8
:10478000074B1B68B3F5167F02DA0B4B01221A6048
:1047900000BF0C37BD465DF8047B7047E00D00207C
:1047A000E80D0020F8F8FFFF920A063F0000E14400
:1047B000E40D0020360E0020200000205077D63B6C
:1047C00080B485B000AF78607B6800221A807B6877
:1047D00000225A807B6810229A807B680022DA804F
:1047E0007B6801221A810023FB600FE07A68FB6876
:1047F00002339B00134400225A807A68FB689B00B6
:10480000134400229A81FB680133FB60FB680F2B85
:10481000ECDD00BF00BF1437BD465DF8047B704778
:1048200090B587B002AF0446084611461A462346A3
:10483000FB800346BB800B46FB701346BB706423B2
:10484000FB73104B1B68002B05DD0E4B1B68013BF7
:104850000C4A136010E0BC78FA78B988F8883B6A93
:104860000093234609F040FF0346FB73FB7B002BBC
:1048700002D0044B1E221A60FB7B18461437BD463B
:1048800090BD00BF4802002080B58CB006AF1B234E
:104890003B71C5237B71D523BB71A523FB7102231B
:1048A0003B7200237B72B423BB729A23FB72E12319
:1048B0003B7311237B730F23BB730023FB73002314
:1048C0003B7400237B740023BB740023FB74391DED
:1048D000264B009304230122022009F0A4FD034685
:1048E000FB75FB7D002B39D11B233B71C5237B71ED
:1048F000D523BB71A523FB7102233B7200237B727E
:104900003623BB72AC23FB72E1233B7311237B7311
:104910000F23BB730023FB7302233B7400237B74C0
:104920000023BB740023FB74104B18883A1D104BF6
:10493000059301230493102303930523029300237B
:104940000193142300931423022109F0F8FD034678
:10495000FB75FB7D002B03D1002303E000BF00E0CB
:1049600000BF472318461837BD4680BD0C02002003
:104970000E02002080B58CB006AF1B233B71C5230F
:104980007B71D523BB71A523FB7102233B720023EE
:104990007B72B423BB729A23FB72E1233B73112316
:1049A0007B730E23BB730023FB7300233B74002334
:1049B0007B740023BB740023FB74391D434B0093AD
:1049C00007230122022009F02EFD0346FB75FB7D23
:1049D000002B71D11B233B71C5237B71D523BB7188
:1049E000A523FB7102233B7200237B723623BB722B
:1049F000AC23FB72E1233B7311237B730E23BB7348
:104A00000023FB7301233B7400237B740023BB74DE
:104A10000023FB742D4B18883A1D2D4B0593012361
:104A200004931023039305230293002301931E2371
:104A300000931423022109F082FD0346FB75FB7DE0
:104A4000002B3BD11B233B71C5237B71D523BB714D
:104A5000A523FB7102233B7200237B723623BB72BA
:104A6000AC23FB72E1233B7311237B730E23BB73D7
:104A70000023FB7302233B7400237B740023BB746D
:104A80000023FB74114B18883A1D124B0593012328
:104A9000049310230393042302930023019312230E
:104AA00000931423022109F04AFD0346FB75FB7DA8
:104AB000002B05D1002305E000BF02E000BF00E0AD
:104AC00000BF472318461837BD4680BD100200209E
:104AD000120200201402002080B586B002AF786078
:104AE0000B46FB700023FB732DE0FA78FB7BD31A97
:104AF000BB73BB7B142B28BF1423BB73FB7B7A686F
:104B00001344BA7B194614480BF030FA134ABB7BA6
:104B10001370134B1888134B1988FB7B7A68134466
:104B2000BA7B00931346002209F0DEFD03467B7337
:104B30007B7B002B01D047230AE00A2004F024FCF1
:104B4000FB7B1433FB73FA7BFB789A42CDD30023B3
:104B500018461037BD4680BD180200202C020020E8
:104B6000100200201402002080B586B002AF7860E9
:104B70000B46FB700023FB7330E0FA78FB7BD31A03
:104B8000BB73BB7B142B28BF1423BB73FB7B7A68DE
:104B90001344BA7B194616480BF0E8F9154ABB7B5B
:104BA0001370154B1888154B1988FB7B7A681344D2
:104BB000BA7B00931346002209F096FD03467B73EF
:104BC0007B7B002B04D00E48FCF7B0FD47230AE0A6
:104BD000142004F0D9FBFB7B1433FB73FA7BFB78C6
:104BE0009A42CAD3002318461037BD4680BD00BF85
:104BF0003002002044020020100200201202002097
:104C0000B016010880B584B002AF0B4B18880B4B6F
:104C100019880B4B1B780B4A0092002209F064FDA7
:104C20000346FB71FB79002B01D0472300E00023F2
:104C300018460837BD4680BD10020020140200202F
:104C40002C0200201802002080B584B002AF184B5F
:104C50001888184B1988184B1B78184A00920022A4
:104C600009F042FD0346FB71FB79002B1BD0144B6E
:104C70001B685B0A03F00103DBB2002B0ED0114965
:104C800011480BF089F90346104A13600F4B1B685B
:104C9000DBB219460C48FFF71FFF02E00948FCF79A
:104CA00045FD472300E0002318460837BD4680BD78
:104CB00010020020120200204402002030020020D6
:104CC000F8010020B0160108B80B0020B00D00203C
:104CD00080B58CB006AF05237B611B233B70C523D9
:104CE0007B70D523BB70A523FB7002233B7100238F
:104CF0007B71B423BB719A23FB71E1233B721123B7
:104D00007B720123BB720023FB7200233B730023E1
:104D10007B730023BB730023FB737B69DBB21A46F2
:104D200052001344DBB20133DBB23946AC4A009285
:104D30000122022009F077FB0346FB74FB7C002B69
:104D400040F03D811B233B70C5237B70D523BB7096
:104D5000A523FB7002233B7100237B713623BB71BB
:104D6000AC23FB71E1233B7211237B720123BB72E5
:104D70000023FB7200233B7300237B730023BB7370
:104D80000023FB73BB7B43F00503DBB2BB73954B86
:104D90001B780433DAB2934B1A70BB7B43F00803E1
:104DA000DBB2BB738F4B1B780233DAB28D4B1A70B8
:104DB000BB7B43F01003DBB2BB738A4B1B7804331D
:104DC000DAB2884B1A70864B18883A46864B0593A0
:104DD00000230493102303930423029300230193DD
:104DE000122300930C23022109F0A9FB0346FB7454
:104DF000FB7C002B40F0E5801B233B70C5237B70C0
:104E0000D523BB70A523FB7002233B7100237B716C
:104E10003623BB71AC23FB71E1233B7211237B7200
:104E20000123BB720023FB7200233B7300237B73BF
:104E3000E023BB730023FB73694B18883A466B4B26
:104E40000593002304931023039304230293002368
:104E50000193102300931423022109F070FB0346F1
:104E6000FB74FB7C002B40F0AE801B233B70C52302
:104E70007B70D523BB70A523FB7002233B710023FD
:104E80007B713623BB71AC23FB71E1233B72112391
:104E90007B720123BB720023FB7200233B7304234C
:104EA0007B730023BB730023FB734D4B18883A467A
:104EB0004F4B059300230493102303930423029381
:104EC00000230193122300930423022109F037FBEE
:104ED0000346FB74FB7C002B77D11B233B70C5235F
:104EE0007B70D523BB70A523FB7002233B7100238D
:104EF0007B713623BB71AC23FB71E1233B72112321
:104F00007B720123BB720023FB7200233B730023DF
:104F10007B730023BB732023FB73314B18883A4605
:104F2000344B05930023049310230393042302932B
:104F300000230193122300930323022109F0FFFAB7
:104F40000346FB74FB7C002B41D11B233B70C52324
:104F50007B70D523BB70A523FB7002233B7100231C
:104F60007B713623BB71AC23FB71E1233B721123B0
:104F70007B720123BB720023FB7200233B738023EF
:104F80007B730023BB730023FB73154B18883A46D1
:104F9000194B0593002304931023039301230293D9
:104FA000002301930C2300930723022109F0C7FA81
:104FB0000346FB74FB7C002B0BD100230BE000BFEE
:104FC00008E000BF06E000BF04E000BF02E000BF51
:104FD00000E000BF472318461837BD4680BD00BF1C
:104FE0000002002025000020020200200402002010
:104FF00006020020080200200A02002080B58CB0C2
:1050000002AFF860B9607A6004F0B2F90346DB08D9
:10501000DBB23B7404F0ACF90346DB0ADBB27B7411
:10502000FB681B68DBB2BB74FB681B681B12DBB23E
:10503000FB74FB685B68DBB23B75FB685B681B124B
:10504000DBB27B75FB689B68DBB2BB75FB689B685A
:105050001B12DBB2FB75BB681B68444A82FB031260
:105060005211DB17D21ABB681A60BB685B683F4AF3
:1050700082FB03125211DB17D21ABB685A60BB685D
:105080009B683A4A82FB03125211DB17D21ABB68A3
:105090009A60BB681B68DBB23B76BB681B681B125F
:1050A000DBB27B76BB685B68DBB2BB76BB685B68F8
:1050B0001B12DBB2FB76BB689B68DBB23B77BB683D
:1050C0009B681B12DBB27B777B681B68DBB2BB770C
:1050D0007B681B681B12DBB2FB777B685B68DBB20B
:1050E00087F820307B685B681B12DBB287F82130C1
:1050F0007B689B68DBB287F822307B689B681B1259
:10510000DBB287F823301A4B18881A4B198807F13D
:105110001003009314230022FFF782FB034687F855
:10512000273097F82730002B1BD0134B1B685B0AE6
:1051300003F00103DBB2002B0ED0104910480AF037
:105140002BFF03460F4A13600E4B1B68DBB2194658
:105150000B48FFF7C1FC02E00848FCF7E7FA4723D9
:1051600000E0002318462837BD4680BD1F85EB515F
:105170000002002004020020F80100201C17010892
:10518000B80B0020B00D002080B58AB002AFF860E7
:10519000084611461A4603467B810B463B8113465F
:1051A000FB8004F0E5F80346DB08DBB23B7404F057
:1051B000DFF80346DB0ADBB27B740223FB77FB7F5D
:1051C00007F110021344FA68D2B21A70FB68191280
:1051D000FB7F013307F110021344CAB21A70FB6857
:1051E0001914FB7F023307F110021344CAB21A707C
:1051F000FB681916FB7F033307F110021344CAB290
:105200001A70FB7F0433FB77FB7F07F11002134416
:105210007A89D2B21A707B891B0A99B2FB7F01335B
:1052200007F110021344CAB21A70FB7F0233FB77F6
:10523000FB7F07F1100213443A89D2B21A70B7F912
:1052400008301B1219B2FB7F013307F1100213441F
:10525000CAB21A70FB7F0233FB77FB7F07F11002A3
:105260001344FA88D2B21A70B7F906301B1219B279
:10527000FB7F013307F110021344CAB21A70FB7F9F
:105280000233FB77184B1888184B198807F1100365
:1052900000930C23002209F027FA0346BB77BB7F5B
:1052A000002B1BD0124B1B685B0A03F00103DBB21F
:1052B000002B0ED00F4910480AF06EFE03460F4A2D
:1052C00013600E4B1B68DBB219460B48FFF704FC5A
:1052D00002E00848FCF72AFA472300E000231846BA
:1052E0002037BD4680BD00BF000200200202002022
:1052F000F801002040170108B80B0020B00D002075
:1053000080B586B002AF0346FB7104F031F8034666
:10531000DB08DBB23B7304F02BF80346DB0ADBB29D
:105320007B73FB79BB73184B1888184B198807F1EE
:105330000C0300930323002209F0D6F90346FB7304
:10534000FB7B002B1BD0124B1B685B0A03F0010395
:10535000DBB2002B0ED00F490F480AF01DFE0346AA
:105360000E4A13600D4B1B68DBB219460A48FFF763
:10537000B3FB02E00A48FCF7D9F9472300E0002319
:1053800018461037BD4680BD0002002008020020EC
:10539000F801002064170108B80B0020B00D0020B0
:1053A00084170108B0B592B008AF2E4A07F1200368
:1053B00092E8030083E803002B4B3C1D1D460FCDF4
:1053C0000FC495E8070003C42280284B5B793B7625
:1053D000264B1B797B76254BDB78BB76234B9B7862
:1053E000FB76224B5B783B77204B1B787B773B7DB2
:1053F00043F02003DBB23B757B7D43F00503DBB25A
:105400007B757B7D43F00803DBB27B757B7D43F0CE
:105410001003DBB27B75BB7D63F07F03DBB2BB7532
:105420000021002009F0B6FD002306930023059318
:10543000002304930023039307F12003029308231E
:10544000019300230093012300220021002008F093
:1054500029FE3B1D19461A2008F070FF00BF2837AF
:10546000BD46B0BDA0170108A8170108E00700203D
:10547000B0B586B004AF78600B467B801D4B01222F
:105480001A601D4A7B8813807B6805331B78184699
:105490007B6804331B781C467B6803331B781D46EE
:1054A0007B6802331B781A467B6801331B781946E8
:1054B0007B681B780293019100922B46224601469D
:1054C0000E48FCF733F90E4B00221A600D4B9B6916
:1054D000002B01D000F09CFC074B18884FF4C873D8
:1054E000009300230A220A2109F0F4F900BF0837CB
:1054F000BD46B0BDFC01002046020020C4170108D3
:10550000F8010020480E002080B500AF094B0022B2
:105510001A600948FCF70AF9084B01221A70084B77
:1055200000221A60074B9B69002B01D000F070FC31
:1055300000BF80BDFC010020E81701082400002006
:10554000F8010020480E002080B588B000AF034667
:10555000FB80FA88364B1B8801339A4237D14FF0D3
:105560000003BB610023FB610023FB820023BB829D
:1055700000237B822F4B1B69002B1FD0D7ED067AAF
:10558000FDEEE77A17EE903AFB60FB6807EE903A83
:10559000F8EEE77A97ED067A77EE677A9FED267A4E
:1055A00067EE877AFDEEE77A17EE903ABB60FB680C
:1055B000642202FB03F3BA681344FB61B7F91230AB
:1055C000B7F91420F98AF869FFF7DEFD23E0FA88BD
:1055D0001A4B1B8801339A4206D1164B93F8283098
:1055E0001846FFF78DFE16E0FA88154B1B8801332D
:1055F0009A4210D0FA88134B1B8801339A4202D189
:10560000FFF700FB07E0FA880F4B1B8801339A4233
:1056100001D1FFF719FB0D4B1B88002B04D00B4B5E
:105620001B88184609F0F8F800BF2037BD4680BD3A
:1056300002020020480E00200000C842080200209C
:105640000602002014020020120200204602002060
:1056500080B584B000AF03463960FB8013467B7190
:10566000FA887E4B1B8802339A4200F0F380FA8856
:105670007B4B1B8802339A4216D13B681B78012B67
:1056800006D1784B1B6843F40073764A1360E1E05F
:105690003B681B78002B40F0DD80724B1B6823F4C5
:1056A0000073704A1360D5E0FA886F4B1B88023391
:1056B0009A4216D13B681B78012B06D1694B1B68B7
:1056C00043F48073674A1360C4E03B681B78002B87
:1056D00040F0C080634B1B6823F48073614A136001
:1056E000B8E0FA88604B1B8801339A4211D101233C
:1056F000FB607B791946386800F0CCF8F860FB68ED
:10570000002B00F0A7807B7919463868FFF72CFA48
:10571000A0E0FA88554B1B8802339A424DD13B6872
:105720001B78012B0CD14F4B1B6843F002034D4AF1
:1057300013604F4B93F828301846FFF7E1FD09E05E
:105740003B681B78002B05D1464B1B6823F00203F6
:10575000444A1360434B1B681B0A03F00103DBB28E
:10576000002B1AD03F4B1B685B0803F00103DBB230
:10577000002B01D03F4B00E03F4B1A463F494048C9
:105780000AF00AFC03463F4A13603E4B1B68DBB23B
:1057900019463B48FFF7E8F95CE0324B1B685B08B1
:1057A00003F00103DBB2002B01D0324B00E0324B9F
:1057B00019463248FBF7BAFF4CE0FA88274B1B88A2
:1057C00001339A4205D17B791946386800F09AFA7C
:1057D00040E0FA882C4B1B8801339A4220D13B6869
:1057E0005A782A4B1A703B689A78284B5A703B6853
:1057F000DA78264B9A703B681A79244BDA703B684A
:105800005A79224B1A713B689A79204B5A713B683E
:10581000DA791E4B9A713B681A7A1C4BDA7119E0DF
:10582000104B1B685B0A03F00103DBB2002B0ED0A8
:10583000174913480AF0B0FB0346124A1360114B94
:105840001B68DBB219460E48FFF746F902E0104824
:10585000FBF76CFF00BF1037BD4680BD0E02002075
:1058600014020020F801002012020020080200208B
:10587000480E002000180108041801080818010843
:10588000B80B0020B00D00200A020020BC0100204F
:1058900018180108F0B59DB00CAF78610B46FB7489
:1058A0000123FB637B691B783F2B0CBF0123002383
:1058B000DAB27B6901331B783F2B0CBF0123002335
:1058C000DBB21340DBB2002B10D00023FB636A492C
:1058D0006A480AF061FB0346694A1360684B1B681B
:1058E000DBB219466548FFF73FF95CE17B691B783D
:1058F000702B0CBF01230023DAB27B6901331B78C4
:10590000722B0CBF01230023DBB21340DBB2002B50
:1059100002D00023FB6346E10922796959480AF065
:105920005BFB0346002B18D13023029330230193F5
:1059300031230093544B554A554950480AF02CFBEB
:1059400003464F4A13604E4B1B68DBB219464B4867
:10595000FFF70AF90023FB6325E1042279694D482A
:105960000AF03AFB0346002B3ED10023FB633023B1
:105970000193302300933123434A47493F480AF0BB
:105980000BFB03463E4A13603D4B1B68DBB21946D6
:105990003A48FFF7E9F803F01BFD03461D0E03F03C
:1059A00017FD03461B0CDEB203F012FD03461B0A73
:1059B000DCB203F00DFD0346DBB2384A0392384AED
:1059C00002920193009433462A4636492B480AF046
:1059D000E3FA03462A4A1360294B1B68DBB21946D7
:1059E0002648FFF7C1F8DEE0092279692E480AF05F
:1059F000F3FA0346002B00F0D6800A2279692B487F
:105A00000AF0EAFA0346002B58D107F12E0207F1FB
:105A100031031146184608F09FFF97F83130302BBC
:105A200001D9234900E02349FB8D1B0A9BB218468C
:105A3000FB8D1B099BB203F00F0297F83130302B1E
:105A400004D9FB8D03F00F03603300E06123019361
:105A5000009203460A46184908480AF09DFA034690
:105A6000074A1360064B1B68DBB219460348FFF771
:105A70007BF80023FB6396E038180108B80B002080
:105A8000B00D0020A4180108B0180108B8180108CA
:105A9000C0180108D4180108DC18010844190108CD
:105AA000501901080C1901085C190108681901084E
:105AB000741901087C190108801901087B691B7899
:105AC000752B0CBF01230023DAB27B6901331B78ED
:105AD000692B0CBF01230023DBB21340DBB21A4653
